{
  "contractName": "OnlineQuiz",
  "abi": [
    {
      "constant": true,
      "inputs": [
        {
          "name": "",
          "type": "address"
        }
      ],
      "name": "favoriteNumbers",
      "outputs": [
        {
          "name": "",
          "type": "uint256"
        }
      ],
      "payable": false,
      "stateMutability": "view",
      "type": "function"
    },
    {
      "constant": false,
      "inputs": [
        {
          "name": "x",
          "type": "uint256"
        }
      ],
      "name": "setFavorite",
      "outputs": [],
      "payable": false,
      "stateMutability": "nonpayable",
      "type": "function"
    }
  ],
  "bytecode": "0x608060405234801561001057600080fd5b5061015f806100206000396000f30060806040526004361061004c576000357c0100000000000000000000000000000000000000000000000000000000900463ffffffff1680634b24c0a9146100515780638afd775a1461007e575b600080fd5b34801561005d57600080fd5b5061007c600480360381019080803590602001909291905050506100d5565b005b34801561008a57600080fd5b506100bf600480360381019080803573ffffffffffffffffffffffffffffffffffffffff16906020019092919050505061011b565b6040518082815260200191505060405180910390f35b806000803373ffffffffffffffffffffffffffffffffffffffff1673ffffffffffffffffffffffffffffffffffffffff1681526020019081526020016000208190555050565b600060205280600052604060002060009150905054815600a165627a7a7230582051029876cb01bde2757b206a19c1178b8d3654f8a397e7e3d0e563ad5bc80b4a0029",
  "source": "pragma solidity ^0.4.22;\n\ncontract OnlineQuiz{\n\tmapping(address => uint256) public favoriteNumbers;\n\n\tfunction setFavorite(uint x) public {\n\t    favoriteNumbers[msg.sender] = x;\n\t}\n}",
  "sourcePath": "/home/ashwini/Dropbox/Sem3/Blockchain/Assignment2/Smart-Contract-OnlineQuiz/contracts/OnlineQuiz.sol",
  "compiler": {
    "name": "solc",
    "version": "0.4.24+commit.e67f0147.Emscripten.clang"
  },
  "schemaVersion": "2.0.1",
  "updatedAt": "2018-11-01T12:11:01.317Z"
}